S01500004C6F636B65725F53797374656D2E73726563CB
S11300000C942A000C9447000C9447000C9447006D
S11300100C9447000C9447000C9447000C94470040
S11300200C9447000C9447000C9447000C94470030
S11300300C9447000C9447000C9447000C94470020
S11300400C9447000C9447000C9447000C94470010
S11300500C94470011241FBECFE5D8E0DEBFCDBF0E
S113006010E0A0E6B0E0E4E0F9E002C005900D92F3
S1130070A23DB107D9F720E0A2EDB0E001C01D9286
S1130080A63FB207E1F70E9444040C9480040C9448
S1130090000080EF8ABB8EEF87BB14BA11BA0895B3
S11300A0883000F5662381F0613009F081C04BB3DC
S11300B021E030E0B90102C0660F771F8A95E2F7AC
S11300C0CB01842B8BBB08954BB321E030E0B90105
S11300D002C0660F771F8A95E2F7CB0180958423CF
S11300E08BBB0895803108F58850662381F0613018
S11300F009F05EC048B321E030E0B90102C0660FE8
S1130100771F8A95E2F7CB01842B88BB089548B307
S113011021E030E0B90102C0660F771F8A95E2F74B
S1130120CB018095842388BB0895883100F58051E4
S1130130662379F06130E1F545B321E030E0B9019F
S113014002C0660F771F8A95E2F7CB01842B85BB2B
S1130150089545B321E030E0B90102C0660F771F6E
S11301608A95E2F7CB018095842385BB089580327C
S1130170F8F48851662379F06130D1F442B321E078
S113018030E0B90102C0660F771F8A95E2F7CB0110
S1130190842B82BB089542B321E030E0B90102C050
S11301A0660F771F8A95E2F7CB018095842382BB83
S11301B00895883058F429B330E0A90102C0559558
S11301C047958A95E2F7CA0181700895803160F4F9
S11301D028EF280F96B3892F90E002C09595879554
S11301E02A95E2F781700895883160F420EF280F92
S11301F093B3892F90E002C0959587952A95E2F7ED
S113020081700895803260F428EE280F90B3892F0E
S113021090E002C0959587952A95E2F7817008953C
S113022081E0089561E08CE00E94500061E08DE07F
S11302300E94500061E08EE00E94500061E08FE077
S11302400E94500061E083E10E94500061E084E17B
S11302500E94500061E085E10E94500061E086E167
S11302600E945000089560E08CE00E94500061E01C
S11302708DE00E94500061E08EE00E94500061E039
S11302808FE00E94500083E10E94D900882309F482
S113029087C084E10E94D900882309F483C085E1E2
S11302A00E94D900882309F47FC086E10E94D90006
S11302B0882309F47BC061E08CE00E94500060E078
S11302C08DE00E94500061E08EE00E94500061E0E9
S11302D08FE00E94500083E10E94D900882309F432
S11302E067C084E10E94D900882309F463C085E1D2
S11302F00E94D900882309F45FC086E10E94D900D6
S1130300882309F45BC061E08CE00E94500061E046
S11303108DE00E94500060E08EE00E94500061E099
S11303208FE00E94500083E10E94D900882309F4E1
S113033047C084E10E94D900882309F443C085E1C1
S11303400E94D900882309F43FC086E10E94D900A5
S11303508823E1F161E08CE00E94500061E08DE0CF
S11303600E94500061E08EE00E94500060E08FE047
S11303700E94500083E10E94D900882349F184E15E
S11303800E94D900882331F185E10E94D900882395
S113039019F186E10E94D900811120C08BE20895F1
S11303A087E3089588E3089589E308958FE2089523
S11303B084E3089585E3089586E308958AE2089521
S11303C081E3089582E3089583E308958DE2089517
S11303D08FE3089580E308958DE3089580E0089500
S11303E0CF93C82F60E08AE00E94500061E089E06A
S11303F00E945000C4FD05C060E084E00E945000EB
S113040004C061E084E00E945000C5FD05C060E0C6
S113041085E00E94500004C061E085E00E94500025
S1130420C6FD05C060E086E00E94500004C061E0A3
S113043086E00E945000CC232CF060E087E00E940C
S1130440500004C061E087E00E94500061E08BE04E
S11304500E9450008FE99FE00197F1F700C000006F
S113046060E08BE00E9450008FE99FE00197F1F774
S113047000C00000C0FD05C060E084E00E945000A0
S113048004C061E084E00E945000C1FD05C060E04A
S113049085E00E94500004C061E085E00E945000A5
S11304A0C2FD05C060E086E00E94500004C061E027
S11304B086E00E945000C3FD05C060E087E00E9412
S11304C0500004C061E087E00E94500061E08BE0CE
S11304D00E9450008FE99FE00197F1F700C00000EF
S11304E060E08BE00E9450008FE99FE00197F1F7F4
S11304F000C00000CF910895CF93C82F60E08AE038
S11305000E94500060E089E00E945000C4FD05C0D4
S113051060E084E00E94500004C061E084E00E9436
S11305205000C5FD05C060E085E00E94500004C095
S113053061E085E00E945000C6FD05C060E086E0F1
S11305400E94500004C061E086E00E945000CC2369
S11305502CF060E087E00E94500004C061E087E076
S11305600E94500061E08BE00E9450008FE99FE000
S11305700197F1F700C0000060E08BE00E9450009A
S11305808FE99FE00197F1F700C00000C0FD05C0AE
S113059060E084E00E94500004C061E084E00E94B6
S11305A05000C1FD05C060E085E00E94500004C019
S11305B061E085E00E945000C2FD05C060E086E075
S11305C00E94500004C061E086E00E945000C3FD18
S11305D005C060E087E00E94500004C061E087E04D
S11305E00E94500061E08BE00E9450008FE99FE080
S11305F00197F1F700C0000060E08BE00E9450001A
S11306008FE99FE00197F1F700C00000CF910895B2
S11306102FE785EB91E0215080409040E1F700C046
S1130620000083E30E947C028FE39FE10197F1F7CE
S113063000C0000082E30E947C028FE39FE10197E7
S1130640F1F700C0000088E20E947C028FE39FE182
S11306500197F1F700C000008CE00E947C028FE358
S11306609FE10197F1F700C0000086E00E947C0240
S11306708FE39FE10197F1F700C0000081E00E9441
S11306807C028FE39FE10197F1F700C00000089519
S11306900F931F93CF938C01C0E003C00E94F0011D
S11306A0CF5FF801EC0FF11D80818111F7CFCF915D
S11306B01F910F910895860F0E947C02089581E096
S11306C00E947C028FE39CE90197F1F700C00000CF
S11306D00895DC01421313C090E00DC0292F30E0CF
S11306E0FD01E20FF31F5081FB01E20FF31F208194
S11306F0521307C09F5F941788F381E0089580E048
S1130700089580E00895CF930E945F032FEF33ECA8
S113071089E0215030408040E1F700C0000060E0F3
S113072080E80E945B0380E690E00E9448031092F8
S1130730F5001092F3002CC00E9433018093F50061
S11307408823D1F38F3341F16091F300E62FF0E079
S1130750EE52FF4F808381E0860F8093F30080EC9C
S11307600E945B038091F5000E94F0019FEF23EC4F
S113077039E0915020403040E1F700C00000609122
S1130780F300615080EC0E945B038AE20E94F00156
S11307908091F5008F3381F62091F3004091F400AD
S11307A062ED70E082EE90E00E9469038823F1F02C
S11307B00E945F038FE690E00E944803C0E00DC0F2
S11307C08EE20E94F0018FEF95EA2EE08150904076
S11307D02040E1F700C00000CF5FC43088F30E94DE
S11307E05F038AE790E00E9448034CC00E945F03C5
S11307F086E890E00E9448033FEF89E698E1315093
S113080080409040E1F700C000008091F2008F5FCB
S11308108093F2008330E0F00E945F0385E990E06A
S11308200E94480360E080EC0E945B0388EA90E049
S11308300E94480324E53DEC8DE293E021503040D2
S113084080409040D9F700C000C000001092F20030
S11308500E945F0388EB90E00E9448039091F200AD
S113086083E3891B0E94F0012FEF39E688E12150D0
S113087030408040E1F700C000008091F2008330F6
S113088008F442CFCF9108950E9449000E940803C2
S11308900E94120184EC90E00E9448030E943301FC
S11308A08093F5008823D1F38F3329F16091F4000C
S11308B0E62FF0E0EE51FF4F808381E0860F8093B6
S11308C0F40080EC0E945B038091F5000E94F0012B
S11308D02FEF83EC99E0215080409040E1F700C075
S11308E000006091F400615080EC0E945B038AE296
S11308F00E94F001D3CF0E94830380E090E008952A
S1070900F894FFCF95
S1130904436865636B2050617373776F7264004C42
S11309146F6164696E672E2E2E0057656C636F6D6C
S113092465202121200057726F6E67205061737314
S1130934776F7264004D6178696D756D20617474AC
S1130944656D7074732121005761697420323020FD
S11309547365636F6E6473005472696573206C65A8
S1130964667420005365742050617373776F7264E6
S105097400007D
S9030000FC
